:100000000C9451010C9482010C9482010C94820195
:100010000C9482010C9482010C9482010C94820154
:100020000C9482010C9482010C9482010C94820144
:100030000C9482010C9482010C9482010C94820134
:100040000C9482010C9482010C9482010C94820124
:100050000C9482010C9482010C9482010C94FE0594
:100060000C9482010C9482010C9482010C94820104
:100070000C9482010C9482010C9482010C948201F4
:100080000C9482010C9482010C9482010C948201E4
:100090000C9482010C9482010C9482010C948201D4
:1000A0000C9482010C9482010C9482010C948201C4
:1000B0000C9482010C9482010C9482010C948201B4
:1000C0000C9482010C9482010C9482010C948201A4
:1000D0000C9482010C9482010C9482010C94820194
:1000E0000C9482010C9404030C94CB010C94C10178
:1000F0000C94D9010C94A8010C94B3020C94DE0268
:100100000C94B4010C94A2010C94AC010C94B802B0
:100110000C9413030C94B0010C94AB020C94FA02EF
:100120000C94DD010C9427030C94F0020C94EB0367
:100130000C94EC030C94CC020C94E6020C94C202D6
:100140000C941D030C9445030C94BD010C943103D5
:100150000C94E7010C94D6020C943B030C94E3013D
:100160000C94CF010C94CF050C94C7010C94E201C0
:100170000C94B7010C94D5010C94DB080C94BE03CD
:1001800000002100240027002A002D003000330049
:1001900001010000040107010A01000022002500FE
:1001A00028002B002E003100340002010000050160
:1001B00008010B01000020002300260029002C006C
:1001C0002F003200000100000301060109010505AE
:1001D0000505070508080808020202020A0A0808BD
:1001E00004040404010101010101010103030303EB
:1001F00003030303040707070C0C0C0C0C0C0C0C7A
:100200000202020206060606060606060B0B0B0B8A
:100210000B0B0B0B010210202008081020401020AF
:1002200040800201020108040201010204081020BA
:1002300040808040201008040201800402018040B8
:100240002010080402010804020101020408102021
:100250004080010204081020408000000A0B0209BF
:100260000C0D0E0807030401000000000000000050
:10027000000000000000000000000000000000007E
:10028000000000000000121110000000000000003B
:10029000000000000000000000000000000000005E
:1002A000DB0811241FBECFEFD1E2DEBFCDBF00E0DF
:1002B0000CBF12E0A0E0B2E0E8E6F5E100E00BBF21
:1002C00002C007900D92AC3AB107D9F722E0ACEA30
:1002D000B2E001C01D92AF3CB207E1F711E0C1E509
:1002E000D1E000E006C021970109802FFE010E94A5
:1002F000A30AC035D10780E00807A9F70E94480685
:100300000C94B20A0C9400008150823108F05AC05B
:10031000E82FF0E08827E057FE4F8F4F0C94A30A98
:10032000B001B401A201A801AC01E201B701BD0115
:10033000C101C701CB01CF01D501D901E201DD0126
:10034000E301E701809180008F778093800008951A
:10035000809180008F7DF9CF80918000877FF5CFDD
:1003600084B58F7784BD089584B58F7DFBCF809150
:10037000B0008F778093B00008958091B0008F7D9A
:10038000F9CF809190008F778093900008958091AD
:1003900090008F7DF9CF80919000877FF5CF80917D
:1003A000A0008F778093A00008958091A0008F7D9A
:1003B000F9CF8091A000877FF5CF809120018F77C2
:1003C000809320010895809120018F7DF9CF809145
:1003D0002001877FF5CFCF93DF93282F30E0F901FD
:1003E000E65AFD4F8491F901EC5EFD4FD491F9017D
:1003F000E253FE4FC491CC23A1F081110E948401ED
:10040000EC2FF0E0EE0FFF1FEC54FE4FA591B491DE
:10041000EC91ED2381E090E009F480E0DF91CF9151
:10042000089580E090E0FACF1F93CF93DF93282FB9
:1004300030E0F901E65AFD4F8491F901EC5EFD4F81
:10044000D491F901E253FE4FC491CC23A9F0162FA9
:1004500081110E948401EC2FF0E0EE0FFF1FE656A1
:10046000FE4FA591B4918FB7F894EC91111108C08B
:10047000D095DE23DC938FBFDF91CF911F9108953C
:10048000DE2BF8CFCF93DF9390E0FC01EC5EFD4FC5
:10049000249182539E4FFC0184918823D1F090E0F7
:1004A000880F991FFC01E058FE4FA591B491FC0103
:1004B000E656FE4FC591D49161110EC09FB7F894D6
:1004C0008C91E22FE0958E238C932881E223E883A0
:1004D0009FBFDF91CF9108958FB7F894EC91E22BF5
:1004E000EC938FBFF6CF1F93CF93DF93182FEB01C1
:1004F00061E00E944202209739F460E0812FDF9191
:10050000CF911F910C941402CF3FD10511F461E0FB
:10051000F5CFE12FF0E0E65AFD4FE491E150E231F2
:1005200008F0B3C0F0E08827E756FD4F8F4F0C94DA
:10053000A30AAB02B302B802C202CC024503D60240
:10054000DE02E602F002FA02040313031D03450370
:10055000270331033B0384B5806884BDC7BDDF91A9
:10056000CF911F91089584B5806284BDC8BDF7CF37
:1005700080918000806880938000D0938900C09330
:100580008800EDCF80918000806280938000D093BE
:100590008B00C0938A00E3CF8091800088608093B5
:1005A0008000D0938D00C0938C00D9CF8091B00093
:1005B00080688093B000C093B300D1CF8091B00029
:1005C00080628093B000C093B400C9CF8091900046
:1005D000806880939000D0939900C0939800BFCF1B
:1005E00080919000806280939000D0939B00C09394
:1005F0009A00B5CF80919000886080939000D0934E
:100600009D00C0939C00ABCF8091A0008068809338
:10061000A0008091A0008F7B8093A000D093A900C0
:10062000C093A8009CCF8091A00080628093A0001E
:10063000D093AB00C093AA0092CF8091A0008860B5
:100640008093A000D093AD00C093AC0088CF809180
:100650002001806880932001D0932901C093280154
:100660007ECF80912001806280932001D0932B0166
:10067000C0932A0174CF809120018860809320016B
:10068000D0932D01C0932C016ACFC038D1050CF056
:100690003ECF33CF863308F0865320917B00982FCE
:1006A0009870277F922B90937B0087708064809353
:1006B0007C0080917A00806480937A0080917A0037
:1006C00086FDFCCF809178009091790008953FB726
:1006D000F8948091B3029091B402A091B502B091C8
:1006E000B60226B5A89B05C02F3F19F00196A11DA3
:1006F000B11D3FBFBA2FA92F982F8827BC01CD016C
:10070000620F711D811D911D42E0660F771F881FCA
:10071000991F4A95D1F708958F929F92AF92BF92F9
:10072000CF92DF92EF92FF924B015C010E94670330
:100730006B017C010E9467036C197D098E099F097A
:10074000683E734081059105A8F321E0821A910863
:10075000A108B10888EEC80E83E0D81EE11CF11C88
:1007600081149104A104B10429F7FF90EF90DF9068
:10077000CF90BF90AF909F908F900895AF92BF920F
:10078000CF92DF92EF92FF920F931F93CF93DF935D
:100790006C017B018B01040F151FEB015E01AE188C
:1007A000BF08C017D10759F06991D601ED91FC91AE
:1007B0000190F081E02DC6011995892B79F7C501CB
:1007C000DF91CF911F910F91FF90EF90DF90CF902D
:1007D000BF90AF900895089590E080E008958F92C3
:1007E0009F92AF92BF920F931F93CF93DF93CDB79A
:1007F000DEB7A1970FB6F894DEBF0FBECDBF19A22A
:10080000423008F44AE08E010F5D1F4F842E912C78
:10081000B12CA12CA50194010E941809E62FB90161
:10082000CA01EA3044F5E05DD801EE938D01232B37
:10083000242B252B79F790E080E0109769F0FD01DB
:1008400001900020E9F73197AF014A1B5B0BBD0116
:1008500087EB92E00E94BE03A1960FB6F894DEBF2C
:100860000FBECDBFDF91CF911F910F91BF90AF9081
:100870009F908F900895E95CD7CFFC0101900020F4
:10088000E9F73197AF01481B590BBC0187EB92E0A8
:100890000C94BE03CF93DF93EC0160E08E810E9445
:1008A000140261E08E810E94140260E08E810E9439
:1008B00014028BE891E00197F1F7DF91CF91089551
:1008C000CF92DF92EF92FF920F931F93CF93DF931C
:1008D0006C017C0187E0E80EF11CD0E0C0E0062F3F
:1008E00010E0B8010C2E02C0759567950A94E2F7E6
:1008F0006170F70181917F010E9414022196C4303A
:10090000D10579F7C601DF91CF911F910F91FF902B
:10091000EF90DF90CF900C944A04CF92DF92EF9249
:10092000FF920F931F93CF93DF93EC01F62E642F6A
:100930008C810E9414028D818F3F19F060E00E942B
:1009400014020F2D10E08F8584FF25C06E0187E013
:10095000C80ED11CF12CE12CB8010E2C02C07595EB
:1009600067950A94E2F76170F60181916F010E9428
:100970001402FFEFEF1AFF0A88E0E816F10461F7AE
:10098000CE01DF91CF911F910F91FF90EF90DF90FB
:10099000CF900C944A04B80184E0759567958A95C8
:1009A000E1F7CE010E9460046F2DCE01DF91CF915F
:1009B0001F910F91FF90EF90DF90CF900C94600407
:1009C00040E0682F87EB92E00C948D04CF93DF9387
:1009D000823029F49091C60298609093C602809369
:1009E000CA021092CB0280E48093CC0280E1809313
:1009F000CD0280E58093CE0261E08091BB020E942F
:100A000042028091BC028F3F19F061E00E944202D5
:100A100061E08091BD020E944202C7EBD2E09E01DC
:100A2000275B32408091C60284FD0BC084E090E0D9
:100A300021962817390744F461E08E810E94420212
:100A4000EECF88E090E0F4CF8BE39DE00197F1F7E3
:100A500060E08091BB020E94140260E08091BD02C0
:100A60000E9414028091BC028F3F19F060E00E9446
:100A700014028091C60284FD39C063E087EB92E0E6
:100A80000E946004CBE4D6E4CE010197F1F763E065
:100A900087EB92E00E9460042197F1F763E087EB17
:100AA00092E00E94600483E592E00197F1F762E032
:100AB00087EB92E00E9460048091C60280620E94EF
:100AC000E00484E08093C7028CE00E94E00481E0AF
:100AD0000E94E0048BE39FE10197F1F782E08093AD
:100AE000C80286E0DF91CF910C94E00480620E94FE
:100AF000E0048BE496E40197F1F78091C6028062EE
:100B00000E94E00483E592E00197F1F78091C6022C
:100B100080620E94E004D0CF9091CA02891710F041
:100B20008FEF890FE82FF0E0E954FD4F848980684A
:100B30000C94E00460E089E10E94140260E08AE124
:100B40000E94140260E08BE10E94140270E060E0F9
:100B500088E00E94730270E060E089E00E94730206
:100B600070E060E08AE00E94730260E08EE10E9423
:100B7000140260E08FE10E94140260E080E20E94B3
:100B8000140280E00E948C058CE092E00E943D04FB
:100B900081E00E948C058CE092E00C943D0441E0E1
:100BA0000E948D0481E090E00895CF92DF92EF9251
:100BB000FF926C01990FEE08FF08F7FE16C041E0A6
:100BC0006DE287EB92E00E948D0466277727CB01C8
:100BD0006C197D098E099F094AE00E94EF03019676
:100BE000FF90EF90DF90CF9008954AE0C701B601E3
:100BF000FF90EF90DF90CF900C94EF031F920F9235
:100C00000FB60F9211242F933F938F939F93AF931F
:100C1000BF938091AF029091B002A091B102B091C8
:100C2000B2023091AE0223E0230F2D3758F5019622
:100C3000A11DB11D2093AE028093AF029093B0022C
:100C4000A093B102B093B2028091B3029091B4022A
:100C5000A091B502B091B6020196A11DB11D80937D
:100C6000B3029093B402A093B502B093B602BF91C1
:100C7000AF919F918F913F912F910F900FBE0F9049
:100C80001F90189526E8230F0296A11DB11DD2CF03
:100C9000789484B5826084BD84B5816084BD85B557
:100CA000826085BD85B5816085BD80916E00816063
:100CB00080936E0010928100809181008260809309
:100CC000810080918100816080938100809180000B
:100CD0008160809380008091B10084608093B10036
:100CE0008091B00081608093B0008091910082601B
:100CF0008093910080919100816080939100809118
:100D000090008160809390008091A1008260809328
:100D1000A1008091A10081608093A1008091A0003A
:100D200081608093A00080912101826080932101E5
:100D30008091210181608093210180912001816057
:100D40008093200180917A00846080937A00809162
:100D50007A00826080937A0080917A00816080932B
:100D60007A0080917A00806880937A001092C100A6
:100D700082E00E94E60460E086E10E94420260E0B8
:100D800087E10E94420260E088E10E94420261E045
:100D900089E10E94420261E08AE10E94420261E030
:100DA0008BE10E94420261E088E00E94420261E021
:100DB00089E00E94420261E08AE00E94420261E012
:100DC0008EE10E94420261E08FE10E94420261E0F6
:100DD00080E20E9442020E949A0544244A9483E0E1
:100DE000582E612C712C90E0292E90E0392E86E14E
:100DF0000E94EB018C0187E10E94EB016C0188E10C
:100E00000E94EB015C0186E30E944A03EC0187E348
:100E10000E944A034C0188E30E944A037C010115A9
:100E2000110509F0ADC01092AD020E949A05109113
:100E3000AD02612F8FE10E9414021123D1F124E64B
:100E400030E0D7010E94AB0AA30192010E94F90889
:100E50006901C901265031092430310508F004C167
:100E600061E08BE10E94140280E00E948C058CE01E
:100E700092E00E943D0481E00E948C058CE092E0AB
:100E80000E943D0480E00E948C0588E392E00E946D
:100E90003D0481E00E948C0580E492E00E943D04C4
:100EA000C6010E94D50564EF71E080E090E00E94E9
:100EB0008C038091AD02882309F455C0BE01DD0F7B
:100EC000880B990B0E9481092AE038E240EA5BE333
:100ED0000E94EA0920E030E048EC52E40E94EA096E
:100EE0006B017C0123E333E34FEC51E40E94E509FD
:100EF00018160CF02AC161E080E20E94140281E021
:100F00000E948C05C701B6010E944909CB010E94CD
:100F1000D5058CE792E00E943D0464EF71E080E02B
:100F200090E00E948C038BEF881691040CF019C19D
:100F300061E08AE10E94140281E00E948C0589E848
:100F400092E00E943D0464EF71E080E090E00E9436
:100F50008C0381E00E948C058CE092E00E943D04AD
:100F600081E08093AC0268EC70E080E090E00E9449
:100F70008C032114310409F43ACF0E94000037CFCA
:100F80000130110509F053CFAB28F9F480E00E943D
:100F90008C058DE192E00E943D0464EF71E080E0F9
:100FA00090E00E948C036FEF70E088E00E94730273
:100FB00070E060E089E00E9473026FE770E08AE011
:100FC0000E9473021092AD0232CFCD2821F580E04D
:100FD0000E948C058CE092E00E943D0481E00E941A
:100FE0008C058CE092E00E943D0480E00E948C051C
:100FF00087E292E00E943D0464EF71E080E090E0BF
:101000000E948C0361E089E10E94140261E08EE19C
:101010000E941402D7CF81E08093AD0260E089E1A5
:101020000E94140260E08EE10E94140270E060E011
:1010300088E00E94730270E060E089E00E94730221
:1010400070E060E08AE00E94730280E00E948C05FC
:101050008CE092E00E943D0481E00E948C058CE0CF
:1010600092E00E943D04E3CE9601215031092430E4
:10107000310598F52FB7F8946091AF027091B002E6
:101080008091B1029091B2022FBF24EF31E040E095
:1010900050E00E941809622F61708BE10E941402D7
:1010A00080E00E948C058CE092E00E943D0481E08B
:1010B0000E948C058CE092E00E943D0480E00E943A
:1010C0008C0580E592E00E943D04C6010E94D50592
:1010D0008FE092E00E943D04E6CE892B19F5109234
:1010E000AD0260E08FE10E9414020E949A0580E048
:1010F0000E948C058CE092E00E943D0481E00E94F9
:101100008C058CE092E00E943D0480E00E948C05FA
:101110008AE592E00E943D0481E00E948C058BE606
:1011200092E0D8CF80E00E948C058CE092E00E9493
:101130003D0481E00E948C058CE092E00E943D0419
:1011400060E08BE10E941402B4CE60E080E20E9475
:10115000140281E00E948C058CE092E00E943D0424
:10116000E2CE8091AC0260E08823D1F08AE10E9457
:10117000140281E00E948C058AE992E00E943D04FD
:1011800064EF71E080E090E00E948C0381E00E94B7
:101190008C058CE092E00E943D041092AC02E3CEFC
:1011A0008AE10E94140281E00E948C058CE092E0AA
:1011B0000E943D04D8CEE7EBF2E01382128284E075
:1011C00092E0918380838CE084838FEF85838BE032
:1011D000868385E0878384E0808783E0818782E05F
:1011E00082871386148615861686178681E00C94EE
:1011F000E604052E97FB1EF400940E94100957FD8B
:1012000007D00E94180907FC03D04EF40C94100973
:1012100050954095309521953F4F4F4F5F4F089522
:1012200090958095709561957F4F8F4F9F4F089552
:10123000A1E21A2EAA1BBB1BFD010DC0AA1FBB1FDA
:10124000EE1FFF1FA217B307E407F50720F0A21B4C
:10125000B30BE40BF50B661F771F881F991F1A94B9
:1012600069F760957095809590959B01AC01BD01E3
:10127000CF010895A29FB001B39FC001A39F700D3D
:10128000811D1124911DB29F700D811D1124911D8E
:1012900008950E9450096894B1110C94DF090895D3
:1012A0000E94C40988F09F5798F0B92F9927B75129
:1012B000B0F0E1F0660F771F881F991F1AF0BA95FA
:1012C000C9F714C0B13091F00E94DE09B1E0089571
:1012D0000C94DE09672F782F8827B85F39F0B93F63
:1012E000CCF3869577956795B395D9F73EF49095AD
:1012F0008095709561957F4F8F4F9F4F0895E8942B
:1013000009C097FB3EF490958095709561957F4F4D
:101310008F4F9F4F9923A9F0F92F96E9BB279395FB
:10132000F695879577956795B795F111F8CFFAF40B
:10133000BB0F11F460FF1BC06F5F7F4F8F4F9F4F3C
:1013400016C0882311F096E911C0772321F09EE89A
:10135000872F762F05C0662371F096E8862F70E000
:1013600060E02AF09A95660F771F881FDAF7880FDA
:101370009695879597F9089557FD9058440F551FF6
:1013800059F05F3F71F04795880F97FB991F61F007
:101390009F3F79F087950895121613061406551F7E
:1013A000F2CF4695F1DF08C0161617061806991FEA
:1013B000F1CF86957105610508940895E894BB27DF
:1013C00066277727CB0197F908950E94570A08F4FA
:1013D0008FEF08950E94FD090C94920A0E94840ADE
:1013E00038F00E948B0A20F0952311F00C947B0AB0
:1013F0000C94810A11240C94DF090E94BC0970F33B
:10140000959FC1F3950F50E0551F629FF001729FA9
:10141000BB27F00DB11D639FAA27F00DB11DAA1FB8
:10142000649F6627B00DA11D661F829F2227B00D05
:10143000A11D621F739FB00DA11D621F839FA00D90
:10144000611D221F749F3327A00D611D231F849FE0
:10145000600D211D822F762F6A2F11249F57504037
:101460009AF0F1F088234AF0EE0FFF1FBB1F661FB2
:10147000771F881F91505040A9F79E3F510580F07B
:101480000C947B0A0C94DF095F3FE4F3983ED4F39D
:10149000869577956795B795F795E7959F5FC1F71F
:1014A000FE2B880F911D9695879597F90895990FB2
:1014B0000008550FAA0BE0E8FEEF16161706E8071E
:1014C000F907C0F012161306E407F50798F0621B3F
:1014D000730B840B950B39F40A2661F0232B242B14
:1014E000252B21F408950A2609F4A140A6958FEF33
:1014F000811D811D089597F99F6780E870E060E085
:1015000008959FEF80EC089500240A94161617069C
:1015100018060906089500240A94121613061406E4
:1015200005060895092E0394000C11F4882352F047
:10153000BB0F40F4BF2B11F460FF04C06F5F7F4FFF
:101540008F4F9F4F0895EE0FFF1F881F8BBF07908F
:10155000F691E02D19940E943A09B7FF0895821B75
:08156000930B0895F894FFCFEE
:1015680000000000CF05BE03EC03EB032020202081
:10157800202020202020202020202020004B6170C7
:1015880069204163696B00456D6E69796574204B0C
:10159800656D65726921200055796172693A20008C
:1015A80059616B697420447573756B202D20250073
:1015B8004B524954494B3A20250059616B697420B4
:1015C80042697474692020202020004D6F746F7266
:1015D800204475726475202020202000432D4B6C18
:1015E800696D61204163696B004661726C617220AC
:1015F8004163696B2020202020004661726C617273
:0C160800204B6170616E646920200000BE
:00000001FF
